:020000001528C1
:100008007E14803120007F08F9002100911C1028FF
:100018002000911C10284C2379082000FF007E1036
:1000280009001628F001F101F201F301F40145304D
:100038008400003085001D307423A0308400003017
:100048008500283074237E102000F2292000BE018C
:10005800BF01B430860000308700283084000030AB
:1000680085001430A40016001A00A40B3728C1011B
:100078000A304102031857281C2320004135283E26
:10008800860087012008C03F2108C13F8530890BC1
:100098004B28000001302000A4002408C1070A30C2
:1000A8004102031C4028C001093040020318BA2845
:1000B800C1014008A400A501A409A509A40A0319BF
:1000C800A50A24080A3EA6000030253DA7002708F7
:1000D800803A803C031D7228260841020318B12883
:1000E80020004135283E86008701403FA400413F5B
:1000F800A5004135023E283E86008701403FA60004
:10010800413FA70025082702031D8C282408260242
:100118000318AC284135283E86008701403FBC00C3
:10012800413FBD004135023E283E860087014135EA
:10013800283E84008501403F803F413F813F413553
:10014800023E283E860087013C08C03F3D08C13F6B
:100158000130A4002408C1075D2801302000A40054
:100168002408C00709304002031C5C28C101C10AE9
:10017800093041020318D4284135283E86008701FA
:10018800403FA400413FA5002408BE072508BF3D05
:100198000130A4002408C10709304102031CC0280B
:1001A8003F08A5003E08A400A536A40CA536A40C5B
:1001B800A536A40C2408DD002508DE0000305E0208
:1001C800963003195D020318ED28F401DD01DE0104
:1001D80008000130A4002408F40008002000BE0133
:1001E800BF01A0308600003087002830840000302E
:1001F80085001430A40016001A00A40BFF28C101C2
:100208000A304102031824291C2320004135283EC6
:10021800860087012008C03F2108C13F1A3020000E
:10022800A400F830890B1629A40B16290000013008
:100238002000A4002408C1070A304102031C082931
:10024800C0010930400203188729C1014008A400F1
:10025800A501A409A509A40A0319A50A24080A3EA8
:10026800A6000030253DA7002708803A803C031DE2
:100278003F292608410203187E2920004135283EDF
:1002880086008701403FA400413FA5004135023E5A
:10029800283E86008701403FA600413FA700250869
:1002A8002702031D592924082602031879294135F4
:1002B800283E86008701403FBC00413FBD004135D4
:1002C800023E283E860087014135283E840085018C
:1002D800403F803F413F813F4135023E283E8600F6
:1002E80087013C08C03F3D08C13F0130A4002408F5
:1002F800C1072A2901302000A4002408C0070930BA
:100308004002031C2929C101C10A0930410203180E
:10031800A1294135283E86008701403FA400413F7E
:10032800A5002408BE072508BF3D0130A400240805
:10033800C10709304102031C8D293F08A5003E086A
:10034800A400A536A40CA536A40CA536A40C240834
:10035800DD002508DE0008002000AA01AB010A30F4
:1003680061020318E1016135453E860087015D0899
:10037800C03F5E08C13F0130A8002808E107AC0172
:10038800AD0100302D020A3003192C020318E329AD
:100398002C35453E86008701403FA800413FA90013
:1003A8002808AA072908AB3D0130AC070030AD3D4D
:1003B80000302D020A3003192C02031CCC290A3004
:1003C800A0000030A1002B08A3002A08A2002722C1
:1003D80020002108F3002008F200080058233F23DA
:1003E80000233123632386230B302000C3002630EB
:1003F800C2005D30890BFE29C20BFE29C30BFE2902
:1004080000322A202000C4010A30440203181C2AA2
:100418004435453E860087015D08C03F5E08C13F00
:100428000130C2004208C4070A304402031C0C2AE7
:1004380091106D238B170B1789236400F220B021CC
:100448005C22C022212A2000A601A701200821043D
:100458000319572AA501A50AA11B3C2A0130A0357A
:10046800A10D890B332A0130A4002408A507302ADE
:100478000130A635A70D890B3D2A21082302031D4B
:10048800472A20082202031C4E2A2008A20221081B
:10049800A33B26140130A136A00C890B4F2A01304A
:1004A800A502031D3C2A2708A1002608A000080071
:1004B80074080319752A0030730264300319720234
:1004C8000318722A01302000A0002008DF071E3020
:1004D8005F02031C0800DF01F40108002000DF01AF
:1004E800080000307302653003197202031C8B2A5E
:1004F80001302000A0002008E0071E306002031C25
:100508000800E0010130A0002008F40008002000E5
:10051800E001080020005B080A3EF70000305C3D5F
:10052800F80071087802031D9B2A700877020318E7
:10053800A22A0A30DB070030DC3DB92A70080A3EDF
:10054800F7000030713DF8005C087802031DAE2A00
:100558005B0877020318B52A0A30DB020030DC3B5F
:10056800B92A7108DC007008DB005C08F6005B083B
:10057800F50080238C23080074080319E12A03304E
:100588007302F33003197202031CCF2A1030F000F3
:100598002730F10008007208F63E2000A000FF3066
:1005A800733DA1000A30A2000030A300E42220001D
:1005B8002108F1002008F0000800F001F10108000E
:1005C8002000A401A501201CED2A2208A407230865
:1005D800A53D0130A235A30D890BEE2A0130A136C5
:1005E800A00C890BF32A20082104031DE72A2508FB
:1005F800A1002408A00008003B003B173B12F33081
:10060800BB05BC01BD018F30BE05FC30BE05BF1760
:100618009F30C005B101B201B301B4012730B60063
:100628000F30B500B701B801B901BA01BB1708000E
:1006380021009D142000111F1E2B1113FF302100D3
:100648001B052000A200033021001C052000A30088
:100658002208A0002308A100080021001D088339F2
:100668000C389D001D149E171E088F3920389E00D7
:10067800FC309E05080021000C1623000C162200F1
:100688000C1223000C1122000C1121000C1108007F
:100698002000911059085A04031908005A088A00C2
:1006A80059080A0083310800210099137830990409
:1006B800FC309905C03098051A1A0800602B78306C
:1006C80020009C041C08FC3901389C00F9309B0070
:1006D80008008E302000A0000230A1007A23080014
:1006E800640080010131890B752B0034200021083A
:1006F800DA002008D900080076083B00B400750825
:10070800B300080020001C150800210091140800FF
:060718003B00BF170800C2
:020000040001F9
:04000E00DCF9FFFE1C
:00000001FF
