:020000001528C1
:100008007E14803120007F08F4002100911C102804
:100018002000911C1028E42274082000FF007E10A4
:10002800090016283323F900F501F601F701F80154
:1000380045308400003085001D301523A030840031
:1000480000308500143015237E102000E928200098
:10005800BE01BF01A0308600003087002830840030
:10006800003085001430A40016001A00A40B3828AC
:10007800C1010A30410203185D28B422200041352D
:10008800283E860087012008C03F2108C13F1A305A
:100098002000A400F830890B4F28A40B4F2800003B
:1000A80001302000A4002408C1070A304102031CC3
:1000B8004128C001093040020318C028C101400886
:1000C800A400A501A409A509A40A0319A50A2408DE
:1000D8000A3EA6000030253DA7002708803A803C4C
:1000E800031D7828260841020318B7282000413547
:1000F800283E86008701403FA400413FA5004135C6
:10010800023E283E86008701403FA600413FA700E7
:1001180025082702031D9228240826020318B2285E
:100128004135283E86008701403FBC00413FBD0065
:100138004135023E283E860087014135283E84002D
:100148008501403F803F413F813F4135023E283E87
:10015800860087013C08C03F3D08C13F0130A4002C
:100168002408C107632801302000A4002408C00720
:1001780009304002031C6228C101C10A093041024A
:100188000318DA284135283E86008701403FA4003D
:10019800413FA5002408BE072508BF3D0130A40043
:1001A8002408C10709304102031CC6283F08A500DE
:1001B8003E08A400A536A40CA536A40CA536A40CAC
:1001C8002408DD002508DE000800F022D7227C2262
:1001D800C922FB2227230B302000C3002630C2008F
:1001E8005D30890BF528C20BF528C30BF5280032C2
:1001F80035212000911C0B2991100A30F507003099
:10020800F63D7608A1007508A00005232D2364009B
:1002180020005C087602031D13295B087502031C85
:10022800FD28C4010A30440203182A294435453EF2
:10023800860087015D08C03F5E08C13F0130C200EB
:100248004208C4070A304402031C1A2991100E23DD
:100258008B170B172A2364002B207B21F2215622AF
:100268002F292000A901AA01AB010A302B0203188B
:100278005029B42220002008A9072108AA3D1A30D5
:10028800890B4429003201302000A8002808AB0758
:100298000A302B02031C3D290A30A0000030A100BF
:1002A8002A08A3002908A200BD2120002108DE0099
:1002B8002008DD0003305E02F33003195D02031CE1
:1002C8006A291030DB002730DC0008005D08F63EA4
:1002D800A000FF305E3DA1000A30A2000030A3005C
:1002E800982220002108DC002008DB0008002000FC
:1002F800AA01AB010A3061020318E1016135453EEC
:10030800860087015D08C03F5E08C13F0130A80034
:100318002808E107AC01AD0100302D020A300319AD
:100328002C020318AE292C35453E86008701403F34
:10033800A800413FA9002808AA072908AB3D0130B9
:10034800AC070030AD3D00302D020A3003192C02F5
:10035800031C97290A30A0000030A1002B08A30035
:100368002A08A200BD2120002108F8002008F70073
:1003780008002000A601A701200821040319ED297F
:10038800A501A50AA11BD2290130A035A10D890B11
:10039800C9290130A4002408A507C6290130A635BB
:1003A800A70D890BD32921082302031DDD29200865
:1003B8002202031CE4292008A2022108A33B2614D8
:1003C8000130A136A00C890BE5290130A502031DD7
:1003D800D2292708A1002608A000080079080319D7
:1003E8000B2A003078021430031977020318082A00
:1003F80001302000A0002008DF071E305F02031C28
:100408000800DF01F90108002000DF0108000030C2
:100418007802153003197702031C212A01302000C5
:10042800A0002008E0071E306002031C0800E0015D
:100438000130A0002008F90008002000E0010800B1
:1004480075080A3EF2000030763DF30020005C0893
:100458007302031D312A5B0872020318382A0A3016
:10046800F5070030F63D4F2A5B080A3EF2000030DF
:100478005C3DF30076087302031D442A7508720276
:1004880003184B2A0A30F5020030F63B4F2A5C0865
:10049800F6005B08F5007608F1007508F0002123E6
:1004A8003023080079080319782A03307802F330DA
:1004B80003197702031C662A10302000DB0027305E
:1004C800DC0008007708F63E2000A000FF30783DE9
:1004D800A1000A30A2000030A300982220002108C1
:1004E800DC002008DB0008002000DB01DC0108003C
:1004F8003B003B173B12F330BB05BC01BD018F30FD
:10050800BE05FC30BE05BF179F30C005B101B20162
:10051800B301B4012730B6000F30B500B701B801F8
:10052800B901BA01BB1708002000A401A501201CCD
:10053800A12A2208A4072308A53D0130A235A30D4E
:10054800890BA22A0130A136A00C890BA72A200802
:100558002104031D9B2A2508A1002408A0000800E7
:1005680021009D142000111FB62A1113FF3021000D
:100578001B052000A200033021001C052000A30059
:100588002208A0002308A100080021001D088339C3
:100598000C389D001D149E171E088F3920389E00A8
:1005A800FC309E05080021000C1623000C162200C2
:1005B8000C1223000C1122000C1121000C11080050
:1005C8002000911059085A04031908005A088A0093
:1005D80059080A00823108002100991378309904DB
:1005E800FC309905C03098051A1A0800F82A7830A6
:1005F80020009C041C08FC3901389C00F9309B0041
:100608000800200021083B00B400200020083B001F
:10061800B300080024302000A0000230A1001B23F2
:100628000800640080010131890B162B003420007A
:100638002108DA002008D900080071083B00B4003E
:100648007008B300080020001C1508002100911450
:1006580008003B00BF1708003B00BF170800013423
:020000040001F9
:04000E00DCF9FFFE1C
:00000001FF
