:020000001528C1
:100008007E14803120007F08F9002100911C1028FF
:100018002000911C10286F2279082000FF007E1014
:1000280009001628F001F101F201F301F401203072
:100038008400003085002F3097227E102000442A4B
:100048002100B601B7013430860000308700A030A7
:1000580084000030850014302000D30016001A00F8
:10006800D30B32282100B9010A30390203185A2863
:100078002F2221003935A03E8600870120004F0835
:10008800C03F5008C13F1A302000D300F830890B18
:100098004B28D30B4B28000001302000D300530815
:1000A8002100B9070A303902031C3C28B80109307D
:1000B80038020318C628B90138082000D300D40133
:1000C800D309D409D30A0319D40A53080A3ED50020
:1000D8000030543DD6005608803A803C031D7728EE
:1000E8005508210039020318BC2821003935A03EE3
:1000F80086008701403F2000D300413FD400210003
:100108003935023EA03E86008701403F2000D500D9
:10011800413FD60054085602031D9428530855023F
:100128000318B52821003935A03E86008701403FD5
:10013800B400413FB5003935023EA03E8600870134
:100148003935A03E84008501403F803F413F813FD3
:100158003935023EA03E860087013408C03F350885
:10016800C13F01302000D30053082100B90760289F
:1001780001302000D30053082100B80709303802A5
:10018800031C5F28B901B90A093039020318E628A7
:100198003935A03E86008701403F2000D300413F0B
:1001A800D40053082100B607200054082100B73DA9
:1001B80001302000D30053082100B9070930390263
:1001C800031CCC2837082000D40021003608200062
:1001D800D300D436D30CD436D30CD436D30C53082E
:1001E800CA005408CB0008002000D901DA010A30FF
:1001F8004E020318CE014E35203E860087014A087C
:10020800C03F4B08C13F0130D7005708CE07DB017C
:10021800DC0100305C020A3003195B0203182B2949
:100228005B35203E86008701403FD700413FD8001C
:100238005708D9075808DA3D0130DB070030DC3DA4
:1002480000305C020A3003195B02031C14290A30CF
:10025800CF000030D0005A08D2005908D1003A2106
:1002680020005008F3004F08F20008002000D501D4
:10027800D6014F08500403196A29D401D40AD01BA7
:100288004F290130CF35D00D890B46290130D300D5
:100298005308D40743290130D535D60D890B502989
:1002A80050085202031D5A294F085102031C6129A4
:1002B8004F08D1025008D23B55140130D036CF0C2C
:1002C800890B62290130D402031D4F295608D0003A
:1002D8005508CF00080074080319882900307302F4
:1002E8001430031972020318852901302000CF0049
:1002F8004F08CC071E304C02031C0800CC01F40147
:1003080008002000CC0108000030730215300319E2
:100318007202031C9E2901302000CF004F08CD0730
:100328001E304D02031C0800CD010130CF004F08DC
:10033800F40008002000CD010800200048080A3E0B
:10034800F7000030493DF80071087802031DAE2916
:10035800700877020318B5290A30C8070030C93D6C
:10036800CC2970080A3EF7000030713DF8004908B2
:100378007802031DC129480877020318C8290A30E2
:10038800C8020030C93BCC297108C9007008C800F0
:100398004908F6004808F500A322AF2208007408AF
:1003A8000319F42903307302F33003197202031C92
:1003B800E2291030F0002730F10008007208F63EFC
:1003C8002000CF00FF30733DD0000A30D10000304C
:1003D800D200F72120005008F1004F08F000080073
:1003E800F001F10108002000D301D4014F1C002ABC
:1003F8005108D3075208D43D0130D135D20D890BAD
:10040800012A0130D036CF0C890B062A4F08500438
:10041800031DFA295408D0005308CF0008003B00F8
:10042800BB173B173B12F330BB05BC01BD018F3036
:10043800BE05FC30BE05BF179F30C005B101B20133
:10044800B301B4012730B6000F30B500B701B801C9
:10045800B901BA01080021009D142000111F312A9A
:100468001113FF3021001B052000D10003302100AB
:100478001C052000D2005108CF005208D000080007
:100488008B170B1790227B2262228622A922AC228C
:100498001322542264002420F8206F21D3214E2AED
:1004A80021001D0883390C389D001D149E171E0855
:1004B8008F3920389E00FC309E05080021000C165C
:1004C80023000C1622000C1221000C1123000C1121
:1004D80022000C150800200091105D085E04031925
:1004E80008005E088A005D080A00823108002100C1
:1004F800991378309904FC309905C03098051A1A78
:100508000800832A783020009C041C08FC39013834
:100518009C00F9309B000800A1302000CF0001307A
:10052800D0009D220800640080010131890B982ABF
:10053800003420005008DE004F08DD00080076086F
:100548003B00B4007508B300080020001C15080023
:0C0558002100911408003B00BF170800B0
:020000040001F9
:04000E00DCF9FFFE1C
:00000001FF
